:100000000C9461000C9473000C9473000C947300B6
:100010000C9473000C9473000C9473000C94730094
:100020000C9473000C9473000C9473000C94730084
:100030000C9473000C9473000C9473000C94730074
:100040000C9477010C9473000C9473000C9473005F
:100050000C9473000C9473000C9473000C94730054
:100060000C9473000C947300000000002300260021
:10007000290000000008000201000003040700003E
:1000800000000000000000000000250028002B00F8
:1000900000000000240027002A00040404040404D3
:1000A0000404020202020202030303030303010227
:1000B00004081020408001020408102001020408F6
:1000C000102011241FBECFEFD8E0DEBFCDBF21E04E
:1000D000A0E0B1E001C01D92A930B207E1F70E9493
:1000E000C1010C945D020C940000CF93DF9390E06B
:1000F000FC01E255FF4F249186569F4FFC018491ED
:100100008823C1F090E0880F991FFC01E057FF4F52
:10011000C591D491FC01EA57FF4FA591B4919FB7C7
:10012000F8948881E22FE0958E2388838C91E823D0
:10013000EC939FBFDF91CF910895833081F028F435
:10014000813099F08230A9F008958730A9F0883085
:10015000C9F08430B1F4809180008F7D03C080911C
:1001600080008F7780938000089584B58F7784BD59
:10017000089584B58F7DFBCF8091B0008F778093F9
:10018000B00008958091B0008F7DF9CFCF93DF93B9
:10019000282F30E0F901EE58FF4F8491F901E25524
:1001A000FF4FD491F901E656FF4FC491CC23A1F043
:1001B00081110E949D00EC2FF0E0EE0FFF1FE85927
:1001C000FF4FA591B491EC91ED2381E090E009F40B
:1001D00080E0DF91CF91089580E090E0FACF1F9307
:1001E000CF93DF93282F30E0F901EE58FF4F849131
:1001F000F901E255FF4FD491F901E656FF4FC49142
:10020000CC23A9F0162F81110E949D00EC2FF0E065
:10021000EE0FFF1FEA57FF4FA591B4918FB7F894E7
:10022000EC91111108C0D095DE23DC938FBFDF91D4
:10023000CF911F910895DE2BF8CF3FB7F8948091AE
:10024000050190910601A0910701B091080126B522
:10025000A89B05C02F3F19F00196A11DB11D3FBFFE
:10026000BA2FA92F982F8827BC01CD01620F711DCD
:10027000811D911D42E0660F771F881F991F4A95C7
:10028000D1F708958F929F92AF92BF92CF92DF9253
:10029000EF92FF920E941D014B015C0184E6C82E83
:1002A000D12CE12CF12C0E941D01681979098A09D1
:1002B0009B09683E734081059105A8F321E0C21AAD
:1002C000D108E108F10888EE880E83E0981EA11C91
:1002D000B11CC114D104E104F10429F7FF90EF909F
:1002E000DF90CF90BF90AF909F908F9008951F9216
:1002F0000F920FB60F9211242F933F938F939F93DA
:10030000AF93BF938091010190910201A0910301ED
:10031000B09104013091000123E0230F2D3758F5EF
:100320000196A11DB11D20930001809301019093BE
:100330000201A0930301B093040180910501909103
:100340000601A0910701B09108010196A11DB11D00
:100350008093050190930601A0930701B0930801D3
:10036000BF91AF919F918F913F912F910F900FBEB1
:100370000F901F90189526E8230F0296A11DB11D1E
:10038000D2CF789484B5826084BD84B5816084BD09
:1003900085B5826085BD85B5816085BD80916E0023
:1003A000816080936E001092810080918100826054
:1003B0008093810080918100816080938100809191
:1003C00080008160809380008091B1008460809380
:1003D000B1008091B00081608093B00080917A007C
:1003E000846080937A0080917A00826080937A00A2
:1003F00080917A00816080937A0080917A00806891
:1004000080937A001092C1008DE00E94750061E037
:100410008DE00E94EF0061E082E00E94EF0081E049
:100420000E9475008AE00E947500C0E0D0E081E083
:100430000E94C60061E00197A9F060E08DE00E9493
:10044000EF0061E082E00E94EF000E94420161E063
:100450008DE00E94EF0060E082E00E94EF000E94C9
:10046000420160E08DE00E94EF0061E082E00E94C6
:10047000EF008AE00E94C60061E0019789F060E029
:100480008DE00E94EF0061E082E00E94EF0061E0F9
:100490008DE00E94EF0060E082E00E94EF0060E0EB
:1004A0008DE00E94EF0061E082E00E94EF00209763
:0E04B00009F4BDCF0E940000BACFF894FFCF30
:00000001FF
